:100000000C94C4000C94E1000C94E1000C94E10009
:100010000C94EA050C94FC060C94E1000C94E100AD
:100020000C9414060C94E1000C94E1000C94E10093
:100030000C94E1000C9403060C94E1000C94E10094
:100040000C94E1000C94E1000C94E1000C94E100AC
:100050000C94E1000C94E1000C94E1000C94E1009C
:100060000C94E1000C94E100000010002F006400EB
:1000700000000000EE0040000C00EE0040000C000C
:10008000EE0040000C00EE0040000C00FC004000C0
:100090000C00FC0040000C00FC0040000C00FC00C8
:1000A00040000C00EE0040000C00EE0040000C0090
:1000B000FC0040000C00FC0040000C00EE00400082
:1000C0000C00EE0040000C00EE004000180028007C
:1000D00000000000EE0040001800FC004000180086
:1000E000EE0040001800D40040001800BD004000A1
:1000F0003000BD0040003000B20040003000B200CF
:1001000040003000BD0040006000B2004000300000
:10011000B20040003000BD0040006000D40040004C
:100120001800D40040001800D40040001800D4008B
:1001300040001800EE0040003000EE0040003000AB
:10014000FC0040003000FC0040003000BD004000DA
:100150006000D40040001800D40040001800D40013
:1001600040001800D40040001800EE0040003000AD
:10017000EE0040003000FC0040003000FC00400079
:100180003000EE004000600011241FBECFEFD8E029
:10019000DEBFCDBF11E0A0E0B1E0ECE1F1E102C0D3
:1001A00005900D92A830B107D9F721E0A8E0B1E0A1
:1001B00001C01D92A536B207E1F70E94D6020C9449
:1001C0008C080C940000FC019081A381B4818C9177
:1001D00041E050E060E070E004C0440F551F661F2E
:1001E000771F9A95D2F7482B4C938581813099F4EB
:1001F00030810180F281E02D208181E090E0A0E05B
:10020000B0E004C0880F991FAA1FBB1F3A95D2F710
:10021000822B8083089530810180F281E02D20813E
:1002200081E090E0A0E0B0E004C0880F991FAA1F11
:10023000BB1F3A95D2F780959095A095B0958223F3
:1002400080830895FC018581813099F4308101809B
:10025000F281E02D208181E090E0A0E0B0E004C0D8
:10026000880F991FAA1FBB1F3A95D2F7822B808354
:10027000089530810180F281E02D208181E090E0BD
:10028000A0E0B0E004C0880F991FAA1FBB1F3A95D9
:10029000D2F780959095A095B0958223808308959C
:1002A0000F931F93FC019081A381B4818C9141E055
:1002B00050E060E070E08A019B0104C0000F111F54
:1002C000221F331F9A95D2F70095109520953095EF
:1002D00008230C9390810180F281E02D808104C07D
:1002E000440F551F661F771F9A95D2F7482B4083FE
:1002F0001F910F910895DF92EF92FF920F931F933A
:10030000CF93DF93CDB7DEB763970FB6F894DEBF18
:100310000FBECDBFE9E1F1E097E0908345E250E008
:100320005283418324E230E03483238381E0858358
:1003300063E06187ABE2B0E0B387A2876AE270E076
:100340007587648786876894DD24D1F8D28A0F2E5A
:10035000F8E2EF2EF12CF02DF48AE38A07E210E0A8
:10036000168B058B878B838FF58EE48E178F068F08
:1003700080A314A256A345A330A727A381A7D5A67F
:1003800057A746A731AB20AB82AB86AB50AF47AB8C
:1003900032AF21AF83AFE6E0E093580150935A01AA
:1003A0004093590130935C0120935B0180935D0180
:1003B000E983BB83AA837D836C831E821A86FC86B5
:1003C000EB861E870D879F87B98BA88B7B8B6A8BEB
:1003D00009E111E00F2EF1E6EF2EF1E0FF2EF02DF6
:1003E000C8010E94E300075F1F4F0E151F05C1F7EC
:1003F000CE0101960E94E300CE010A960E945001B0
:10040000CE010F960E94500163960FB6F894DEBF9E
:100410000FBECDBFDF91CF911F910F91FF90EF9055
:10042000DF900895EF92FF920F931F938830D0F4DE
:10043000E8E6F0E0908191609083EBE6F0E02081C7
:1004400041E050E060E070E07A018B0104C0EE0C06
:10045000FF1C001F111F8A95D2F7D801C701822BFC
:1004600080833DC098EF980F9730D8F4E8E6F0E02D
:10047000908192609083ECE6F0E02081877041E00B
:1004800050E060E070E07A018B0104C0EE0CFF1CCC
:10049000001F111F8A95D2F7D801C701822B8083D4
:1004A0001EC090EF980F9830D0F4E8E6F0E090810D
:1004B00094609083EDE6F0E020818F7041E050E0A1
:1004C00060E070E07A018B0104C0EE0CFF1C001F9D
:1004D000111F8A95D2F7D801C701822B80831F9103
:1004E0000F91FF90EF90089588E00E94120287E13B
:1004F0000E94120208950F931F93683071058105C1
:100500009105A0F4EBE6F0E0408101E010E020E08E
:1005100030E0D901C80104C0880F991FAA1FBB1F72
:100520006A95D2F78095842380833DC08B019C011E
:10053000085011092109310907301105210531053C
:10054000A0F4ECE6F0E020816770772781E090E08E
:10055000A0E0B0E004C0880F991FAA1FBB1F6A95D6
:10056000D2F78095822380831EC08B019C010051AD
:10057000110921093109073011052105310598F4C8
:10058000EDE6F0E020816F70772781E090E0A0E059
:10059000B0E004C0880F991FAA1FBB1F6A95D2F74D
:1005A0008095822380831F910F910895CF93DF93CD
:1005B000CDB7DEB72B970FB6F894DEBF0FBECDBF19
:1005C0000E947B010E9440070E947402E1E8F0E073
:1005D00080818B7F8083808183608083E1EBF0E08A
:1005E00080818A7F808380818260808383E680939C
:1005F000B400EFE6F0E0808181608083E0E7F0E026
:10060000808184608083789419821A821B821C8284
:10061000412C512C3201C12CD12C28E230E040E099
:1006200050E02D833E834F835887FF24F394E12CC1
:100630000F2EF1E68F2EF1E09F2EF02DE9866894C3
:10064000222421F880910A01853099F580911401C6
:10065000823078F4E0920701E0921801E82FF0E090
:10066000EE0FFF1FE859FF4F45905490612C712CFD
:10067000D82E883041F48F2D9091070191118E2D45
:10068000809307010FC08E3051F48F2D9091180187
:1006900091118E2D809318018093070103C08C3037
:1006A00009F42998E0920901E0920A01E110BAC127
:1006B00015C080910901823009F475C030F4882397
:1006C00069F0813009F444C0ADC1843009F413C12C
:1006D00008F4C0C0853009F45BC1A4C109E111E090
:1006E0001A861B863E2C8D2D90E05C01AA0CBB1C4B
:1006F000AA0CBB1CAA0CBB1C8A0D9B1DAC01425E44
:100700005E4F5A013D1003C0D5011C920FC0EA850F
:10071000FB85EE0FFF1FEE0FFF1FEE0FFF1F2A8559
:100720003B85E20FF31FE75EFE4FF582C8010E9492
:10073000220133944A855B854F5F5F4F5B874A8711
:10074000075F1F4F58E03512DDCFF09209016AC1F3
:1007500080910701813009F065C109E111E0A12C08
:10076000B12CF501EE0FFF1FEE0FFF1FEE0FFF1F65
:10077000EA0DFB1DE75EFE4FF582C8010E942201D3
:100780008FEFA81AB80A075F1F4F98E0A916B104A7
:1007900041F70E94330865E070E00E94A5078F5F73
:1007A000809309013FC180910F0190911001A091A8
:1007B0001101B09112018D3A9D40A105B10508F4D7
:1007C0003FC010920F01109210011092110110926F
:1007D00012010F2EF9E1AF2EF1E0BF2EF02D00E057
:1007E00010E0BB86AA86B9849801F801EE0FFF1FBE
:1007F000EE0FFF1FEE0FFF1FE00FF11FE75EFE4F32
:1008000095818F2D91118B2DF901EE0FFF1FEE0FAA
:10081000FF1FEE0FFF1F2E0F3F1FF901E75EFE4F78
:1008200085838A859B850E9422010F5F1F4F2A8541
:100830003B85275F3F4F3B872A8708301105A1F68C
:10084000809113018B3008F4EDC0F0920901E09221
:100850001301E8C080910F0190911001A091110146
:10086000B09112018D329140A105B105D0F11092E5
:100870000F01109210011092110110921201C1107B
:1008800005C010921E01F0924B01A1C18C2D90E089
:10089000FC01EE0FFF1FEE0FFF1FEE0FFF1FE80F13
:1008A000F91FE75EFE4F15820197FC01EE0FFF1F57
:1008B000EE0FFF1FEE0FFF1F8E0F9F1FFC01E75E65
:1008C000FE4FF58284C1C8010E942201075F1F4FBD
:1008D00008151905C1F745E0C41611F0C39401C00D
:1008E000CE2C809113018B3008F49CC0F09209014A
:1008F000E092130197C080910F0190911001A09197
:100900001101B09112018D329140A105B105B0F1F4
:1009100010920F0110921001109211011092120109
:100920008C2D90E0FC01EE0FFF1FEE0FFF1FEE0F6E
:10093000FF1FE80FF91FE75EFE4F35812F2D3111A4
:100940002E2DFC01EE0FFF1FEE0FFF1FEE0FFF1FFE
:100950008E0F9F1FFC01E75EFE4F258309E111E02A
:10096000C8010E942201075F1F4F08151905C1F732
:1009700085E0C81611F0C39401C0CE2C80911301FC
:100980008B3008F44FC0F0920901E09213014AC085
:1009900080910F0190911001A0911101B09112016D
:1009A000853F9140A105B105A8F110920F01109269
:1009B000100110921101109212010E9433088770E9
:1009C0009078992324F40197886F9F6F01968C018A
:1009D0000E94330881709078992324F401978E6FD8
:1009E0009F6F01969801220F331F220F331F220F92
:1009F000331F200F311F275E3E4FD90115968C9370
:100A000009E111E0C8010E942201075F1F4F08158C
:100A10001905C1F7809113018B3020F0F092090184
:100A2000E092130180910801813009F477C020F031
:100A3000823009F4BCC006CE8D2D90E0FC01EE0F93
:100A4000FF1FE659FF4F4591549160E070E0441656
:100A500055066606770608F03DC020911801213042
:100A600009F038C08201000F111FF801E40DF51DD7
:100A7000EE0FFF1FE259FF4F65917491F801E40DED
:100A8000F51DEE0FFF1FE059FF4F859194910E94D5
:100A9000380710920B0110920C0110920D01109268
:100AA0000E01E2EBF0E01082F801E40DF51DEE0F0F
:100AB000FF1FEE58FF4FA591B4912D813E814F81CC
:100AC00058850E94B90769837A838B839C83F0924F
:100AD0000801B8CDFC01EE0FFF1FE859FF4F45900C
:100AE0005490FFEF4F1A5F0A612C712CD301C201A1
:100AF0000197A109B109FC01EE0FFF1FE80FF91FD3
:100B0000EE0FFF1FE259FF4F859194919C0140E049
:100B100050E02D833E834F83588794CD80910B0105
:100B200090910C01A0910D01B0910E0129813A81A3
:100B30004B815C8182179307A407B50720F480914D
:100B40001801811115C085B5887F85BD10920B01F4
:100B500010920C0110920D0110920E01A2EBB0E068
:100B60001C92BFEF4B1A5B0A6B0A7B0A20920801AA
:100B70008D2D90E0FC01EE0FFF1FE659FF4F4591D0
:100B8000549160E070E0441555056605770509F05D
:100B900059CDFC01EE0FFF1FE859FF4F45905490CF
:100BA000612C712CE0921801E09208014BCD8091EC
:100BB0000B0190910C01A0910D01B0910E010A97CB
:100BC000A105B10508F43ECDE09208013BCD09E155
:100BD00011E079CE1F920F920FB60F9211248F93CE
:100BE0009F93309909C081E090911801911180E0A4
:100BF00080931801809307019F918F910F900FBEF2
:100C00000F901F9018951F920F920FB60F921124FC
:100C10008F93809113018F5F809313018F910F90B9
:100C20000FBE0F901F9018951F920F920FB60F9244
:100C300011248F939F93AF93BF9380910F01909155
:100C40001001A0911101B09112010196A11DB11DD9
:100C500080930F0190931001A0931101B0931201A2
:100C600080910B0190910C01A0910D01B0910E01AA
:100C70000196A11DB11D80930B0190930C01A093CF
:100C80000D01B0930E01BF91AF919F918F910F9085
:100C90000FBE0F901F90189580910A018230E9F1E4
:100CA00028F4882351F08130D1F0A4C0833009F4B6
:100CB00044C0843009F499C09DC080911601909180
:100CC0001701855294408B38910528F481E0809378
:100CD0000A0180E0089510920A0180E00895809151
:100CE000160190911701855F91408C37910588F42A
:100CF00082E080930A0110921501E0910501F091C4
:100D0000060110821182128213821092140180E077
:100D1000089510920A0180E0089580911601909143
:100D200017018E978C9728F483E080930A0180E066
:100D3000089510920A0180E0089580911601909123
:100D400017019C012E5231092C32310520F482E02A
:100D500080930A013CC08759910983369105A8F513
:100D6000E0910501F091060181E090E0009015010D
:100D700002C0880F991F0A94E2F7092E000CAA0BF3
:100D8000BB0B4081518162817381842B952BA62BF3
:100D9000B72B80839183A283B3838091150190EF59
:100DA000980F983070F421E030E0A90102C0440FA0
:100DB000551F9A95E2F7CA0190911401892B8093EF
:100DC000140182E080930A0102C010920A0180910E
:100DD00015018F3129F484E080930A0180E00895A1
:100DE0008F5F8093150180E0089585E080930A016C
:100DF00081E0089580E008951F920F920FB60F9240
:100E000011242F933F934F935F936F937F938F930F
:100E10009F93AF93BF93EF93FF9398B182E089279D
:100E200088B9A4E8B0E08D919C9111979093170137
:100E300080931601E1E8F0E080818B7F80838081E0
:100E40008360808311961C921E920E944C06FF9133
:100E5000EF91BF91AF919F918F917F916F915F9132
:100E60004F913F912F910F900FBE0F901F901895AB
:100E7000CF93C62F0E94500716BCC7BDCF910895CF
:100E800084B5836084BD85B5886085BD84B58F7762
:100E900084BD84B5806484BD85B5887F85BD089593
:100EA00080349105F9F030F48130910559F00897BC
:100EB00089F033C0811521E09207E1F0811594405B
:100EC00009F12BC085B5897F85BD85B5816085BD5C
:100ED00081E024C085B58A7F85BD85B5826085BDEA
:100EE00081E01CC085B58B7F85BD85B5836085BDE0
:100EF00081E014C085B58C7F85BD85B5846085BDD6
:100F000081E00CC085B5846085BD85B5816085BDF7
:100F100085B58D7F85BD81E001C080E090E00895BA
:100F20000895F894E1E6F0E080E8808383E0808330
:100F300078940895009741F0EFECF7E03197F1F7DE
:100F400000C000000197C1F7089597FB072E16F423
:100F5000009407D077FD09D00E94C40707FC05D094
:100F60003EF4909581959F4F0895709561957F4FC0
:100F700008950E94D807A59F900DB49F900DA49F3F
:100F8000800D911D11240895AA1BBB1B51E107C0C0
:100F9000AA1FBB1FA617B70710F0A61BB70B881F09
:100FA000991F5A95A9F780959095BC01CD01089598
:100FB000A29FB001B39FC001A39F700D811D11249A
:100FC000911DB29F700D811D1124911D08958F9266
:100FD0009F92AF92BF92CF92DF92EF92FF92CF9308
:100FE000DF93EC01688179818A819B8161157105AC
:100FF0008105910521F464E279ED8BE597E02DE11F
:1010000033EF41E050E00E94430849015A019B013F
:10101000AC01A7EAB1E40E94B9076B017C01ACEE18
:10102000B4EFA50194010E946508DC01CB018C0D91
:101030009D1DAE1DBF1DB7FF03C00197A109B0489C
:1010400088839983AA83BB839F77DF91CF91FF9099
:10105000EF90DF90CF90BF90AF909F908F900895CA
:101060000E94E707089580E091E00E94E707089555
:10107000A0E0B0E08093000190930101A0930201F1
:10108000B09303010895052E97FB1EF400940E946F
:101090005A0857FD07D00E946A0807FC03D04EF497
:1010A0000C945A0850954095309521953F4F4F4FDD
:1010B0005F4F089590958095709561957F4F8F4F04
:1010C0009F4F0895B7FF0C94B9070E94B907821B80
:1010D000930B0895A1E21A2EAA1BBB1BFD010DC0A4
:1010E000AA1FBB1FEE1FFF1FA217B307E407F507D8
:1010F00020F0A21BB30BE40BF50B661F771F881FB4
:10110000991F1A9469F760957095809590959B0149
:0C111000AC01BD01CF010895F894FFCFA1
:08111C00010000000161010166
:00000001FF
