:100000000C94C4000C94E1000C94E1000C94E10009
:100010000C940A060C942D070C94E1000C94E1005A
:100020000C9436060C94E1000C94E1000C94E10071
:100030000C94E1000C9425060C94E1000C94E10072
:100040000C94E1000C94E1000C94E1000C94E100AC
:100050000C94E1000C94E1000C94E1000C94E1009C
:100060000C94E1000C94E100000010002F006400EB
:1000700000000000EE0040000C00EE0040000C000C
:10008000EE0040000C00EE0040000C00D4004000E8
:100090000C00D40040000C00D40040000C00D40040
:1000A00040000C00BD0040000C00BD0040000C00F2
:1000B000D40040000C00D40040000C00EE004000D2
:1000C0000C00EE0040000C00EE004000180028007C
:1000D00000000000EE0040001800D40040001800AE
:1000E000BD0040001800B200400018009E00400013
:1000F00030009E00400030008D00400030008D0038
:10010000400030009E00400060008D004000300044
:100110008D00400030009E0040006000B2004000B2
:100120001800B20040001800B20040001800B200F1
:1001300040001800BD0040003000BD00400030000D
:10014000D40040003000D400400030009E00400049
:100150006000B20040001800B20040001800B20079
:1001600040001800B20040001800BD004000300000
:10017000BD0040003000D40040003000D4004000FA
:100180003000EE004000600011241FBECFEFD8E029
:10019000DEBFCDBF11E0A0E0B1E0E2E9F1E102C0D5
:1001A00005900D92A830B107D9F721E0A8E0B1E0A1
:1001B00001C01D92A536B207E1F70E9433030C94EB
:1001C000C7080C940000EF92FF920F931F93CF93F8
:1001D000DF93FC018081C381D481288141E050E01C
:1001E00060E070E07A018B0104C0EE0CFF1C001F80
:1001F000111F8A95D2F7D801C701822B8883858188
:1002000090810180F281E02D8130A9F0808104C0CD
:10021000440F551F661F771F9A95D2F7409550954A
:100220006095709548234083DF91CF911F910F9186
:10023000FF90EF900895808104C0440F551F661F02
:10024000771F9A95D2F7482B4083DF91CF911F916A
:100250000F91FF90EF900895EF92FF920F931F93ED
:10026000CF93DF93CDB7DEB763970FB6F894DEBFB9
:100270000FBECDBFA7E0A093190145E250E0509317
:100280001B0140931A0124E230E030931D012093BA
:100290001C0181E080931E0180932201EBE2F0E0DB
:1002A000F0932401E09323016AE270E07093260149
:1002B000609325018093270192E090932B01B8E28F
:1002C000EB2EF12CF0922D01E0922C0107E210E0D0
:1002D00010932F0100932E018093300180933401FD
:1002E000F0923601E0923501109338010093370106
:1002F0008093390180933D0150933F0140933E012B
:10030000309341012093400180934201A093460124
:10031000F0934801E093470170934A0160934901CB
:1003200080934B0190934F015093510140935001A2
:10033000309353012093520180935401A6E0A0937F
:10034000580150935A014093590130935C01209316
:100350005B0180935D01A983FB83EA837D836C83CA
:100360001E829F8783E08A8709E111E0C8010E940D
:10037000E300075F1F4F81E001361807B9F7CE0190
:1003800001960E94E3003F852AB181E090E0A0E061
:10039000B0E0AC01BD0104C0440F551F661F771FBC
:1003A0003A95D2F7409550956095709542234AB999
:1003B0003F852BB1AC01BD0104C0440F551F661F22
:1003C000771F3A95D2F7422B4BB93A852AB1AC0147
:1003D000BD0104C0440F551F661F771F3A95D2F721
:1003E000409550956095709542234AB93A852BB156
:1003F00004C0880F991FAA1FBB1F3A95D2F7822B02
:100400008BB963960FB6F894DEBF0FBECDBFDF91F8
:10041000CF911F910F91FF90EF900895FC0185817E
:1004200030810180F281E02D2081813091F081E0E6
:1004300090E0A0E0B0E004C0880F991FAA1FBB1F86
:100440003A95D2F780959095A095B09582238083B8
:10045000089581E090E0A0E0B0E004C0880F991F0B
:10046000AA1FBB1F3A95D2F7822B808308950F9362
:100470001F93FC019081A381B4818C9141E050E0F5
:1004800060E070E08A019B0104C0000F111F221F71
:10049000331F9A95D2F70095109520953095082333
:1004A0000C9390810180F281E02D808104C0440F83
:1004B000551F661F771F9A95D2F7482B40831F91CF
:1004C0000F910895EF92FF920F931F93883008F4D5
:1004D00046C098EF980F973018F190EF980F98302A
:1004E000D0F49091680094609093680020916D0022
:1004F0008F7041E050E060E070E07A018B0104C051
:10050000EE0CFF1C001F111F8A95D2F7D801C701FE
:10051000822B80936D001F910F91FF90EF900895B3
:100520009091680092609093680020916C008770B1
:1005300041E050E060E070E07A018B0104C0EE0C15
:10054000FF1C001F111F8A95D2F7D801C701822B0B
:1005500080936C001F910F91FF90EF900895909100
:10056000680091609093680020916B0041E050E03A
:1005700060E070E07A018B0104C0EE0CFF1C001FEC
:10058000111F8A95D2F7D801C701822B80936B0087
:100590001F910F91FF90EF90089582E10E946202F7
:1005A00083E10C9462020F931F93683071058105FB
:1005B000910508F442C08B019C01085011092109E2
:1005C0003109073011052105310508F18B019C0126
:1005D00000511109210931090730110521053105A3
:1005E00098F420916D006F70772781E090E0A0E093
:1005F000B0E004C0880F991FAA1FBB1F6A95D2F7ED
:100600008095822380936D001F910F910895209112
:100610006C006770772781E090E0A0E0B0E004C054
:10062000880F991FAA1FBB1F6A95D2F78095822356
:1006300080936C001F910F91089540916B0001E031
:1006400010E020E030E0D901C80104C0880F991FF4
:10065000AA1FBB1F6A95D2F78095842380936B00F5
:100660001F910F910895CF93DF9300D000D000D059
:10067000CDB7DEB70E942C010E9478070E94CD0200
:10068000809181008B7F80938100809181008360C5
:10069000809381008091B1008A7F8093B100809126
:1006A000B10082608093B10083E68093B4008091B2
:1006B0006F00816080936F008091700084608093F0
:1006C00070007894412C512C3201C12CD12C760130
:1006D000912CA12C88E290E0A0E0B0E089839A837D
:1006E000AB83BC83BB24B394B2E08B2E80910A0110
:1006F000853009F441C080910901823009F405C1B7
:1007000008F4C7C1843009F46AC108F43BC18530DC
:10071000B1F480910F0190911001A0911101B0915D
:100720001201853F9140A105B10508F0EBC1809110
:1007300013018B3020F0B0920901109213018091C7
:100740000801813009F461C0813008F4A3C082300F
:1007500069F680910B0190910C01A0910D01B0916F
:100760000E010A97A105B10508F2109208018091C7
:100770000A01853009F0BFCF80911401823008F45E
:1007800074C1883009F469C18E3009F4B3C18C306A
:1007900009F47DC11092090110920A0109E111E0EA
:1007A00040E050E08A2D90E01C01220C331C220C0A
:1007B000331C220C331C820D931DDC01A25EBE4F44
:1007C0001D01A41609F423C2FA01EE0FFF1FEE0F5C
:1007D000FF1FEE0FFF1FE40FF51FE75EFE4FB58210
:1007E000C8014D835E830E940E024D815E814F5F82
:1007F0005F4F075F1F4F4830510519F7B09209014D
:1008000080910801813009F09FCF80910B01909178
:100810000C01A0910D01B0910E0184159505A6055E
:10082000B70520F480911801811114C085B5887F27
:1008300085BD10920B0110920C0110920D011092C7
:100840000E011092B2009FEFC91AD90AE90AF90AFB
:10085000809208018A2D90E0FC01EE0FFF1FE659FF
:10086000FF4F25913491A90160E070E04C155D05C2
:100870006E057F0509F03ACFFC01EE0FFF1FE85926
:10088000FF4FC590D490E12CF12C109218011092DA
:1008900008012CCF8A2D90E0FC01EE0FFF1FE659D6
:1008A000FF4F25913491A90160E070E0C416D50690
:1008B000E606F70630F430901801E1E03E1609F440
:1008C0006DC1FC01EE0FFF1FE859FF4FC590D4909A
:1008D000FFEFCF1ADF0AE12CF12CD701C6010197F7
:1008E000A109B109FC01EE0FFF1FE80FF91FEE0F80
:1008F000FF1FE259FF4F25913491C901A0E0B0E0FC
:1009000089839A83AB83BC83F1CE80910F01909150
:100910001001A0911101B09112018D3A9D40A105E5
:10092000B10508F404CF10920F011092100110923B
:1009300011011092120109E111E0212C312CC101A9
:10094000880F991F880F991F880F991FFC01E20DCE
:10095000F31DE75EFE4F358121E0311120E0820D6D
:10096000931DFC01E75EFE4F2583C8010E940E0225
:100970008FEF281A380A075F1F4F98E029163104B5
:10098000F1F6D5CE80910F0190911001A091110147
:10099000B09112018D329140A105B10508F4C7CE86
:1009A00010920F0110921001109211011092120179
:1009B0009110D7C010921E01B0924B0109E111E0D5
:1009C000C8010E940E02075F1F4FF1E001361F07AA
:1009D000B9F725E0921609F43EC09394A8CE809111
:1009E0000F0190911001A0911101B09112018D326F
:1009F0009140A105B10508F49ACE10920F01109212
:100A000010011092110110921201892D90E09C01A9
:100A1000220F331F220F331F220F331FF901E80F5C
:100A2000F91FE75EFE4F558141E0511140E0820F12
:100A3000931FFC01E75EFE4F458309E111E0C80109
:100A40000E940E02075F1F4F81E001361807B9F7B9
:100A500095E09912C2CF912C6ACE81E09091070166
:100A6000911180E08093070195CE109207011092BA
:100A70001801E82FF0E0EE0FFF1FE859FF4FC59077
:100A8000D490E12CF12CA82E8C3009F083CE2A983A
:100A900081CE882309F482CE813009F050CE809136
:100AA0000701813009F04BCE09E111E0212C312CF6
:100AB000F101EE0FFF1FEE0FFF1FEE0FFF1FE20D04
:100AC000F31DE75EFE4FB582C8010E940E02FFEFE4
:100AD0002F1A3F0A075F1F4F28E02216310441F703
:100AE0000E946E0865E070E00E94E0078F5F8093CF
:100AF000090125CE81E090911801911180E0809349
:100B00001801B0CF10920F01109210011092110134
:100B1000109212010E946E088C010770107817FD68
:100B20006FC00E946E088170907897FD64C0980134
:100B3000220F331F220F331F220F331F200F311FAD
:100B4000275E3E4FD90115968C9309E111E0C8014B
:100B50000E940E02075F1F4FB1E001361B07B9F775
:100B6000E6CD892D90E0FC01EE0FFF1FEE0FFF1F79
:100B7000EE0FFF1FE80FF91FE75EFE4F158201978A
:100B8000FC01EE0FFF1FEE0FFF1FEE0FFF1F8E0F7A
:100B90009F1FFC01E75EFE4FB58210CF8601000F5C
:100BA000111F0C0D1D1D000F111FF801E259FF4F01
:100BB00065917491F801E059FF4F859194910E94DD
:100BC000690710920B0110920C0110920D01109206
:100BD0000E011092B200F801EE58FF4FA591B491AA
:100BE00029813A814B815C810E94F4072B013C01F1
:100BF000309208017BCD01978E6F9F6F019697CF42
:100C000001501109086F1F6F0F5F1F4F8ACFF1014D
:100C10001082E6CD1F920F920FB60F9211248F9380
:100C20009F93329909C081E09091180191110BC0F6
:100C300080931801809307019F918F910F900FBEB1
:100C40000F901F90189580E0F3CF1F920F920FB670
:100C50000F9211248F93809113018F5F8093130162
:100C60008F910F900FBE0F901F9018951F920F92AB
:100C70000FB60F9211248F939F93AF93BF938091E0
:100C80000F0190911001A0911101B09112010196F4
:100C9000A11DB11D80930F0190931001A09311012C
:100CA000B093120180910B0190910C01A0910D0164
:100CB000B0910E010196A11DB11D80930B0190937F
:100CC0000C01A0930D01B0930E01BF91AF919F91C4
:100CD0008F910F900FBE0F901F901895CF92DF92BB
:100CE000EF92FF9280910A01823009F43FC018F51B
:100CF000882309F447C0813059F5809116019091FD
:100D00001701855F91408C37910540F582E0809313
:100D10000A0110921501E0910501F091060110827F
:100D20001182128213821092140180E0FF90EF90E2
:100D3000DF90CF900895833099F1843049F485E0B5
:100D400080930A0181E0FF90EF90DF90CF900895AB
:100D500080E0FF90EF90DF90CF90089510920A010D
:100D600080E0FF90EF90DF90CF9008958091160182
:100D7000909117018E978C9788F783E080930A01F2
:100D800080E0D4CF80911601909117018552944054
:100D90008B38910518F781E080930A0180E0C6CF77
:100DA00080911601909117019C012E5231092C322D
:100DB000310588F482E080930A01809115018F311A
:100DC00009F446C08F5F8093150180E0FF90EF909B
:100DD000DF90CF900895875991098336910598F552
:100DE000E0910501F091060180911501A82FB0E076
:100DF00021E030E0A901082E02C0440F551F0A94DB
:100E0000E2F7052E000C660B770BC080D180E280E4
:100E1000F3804C295D296E297F29408351836283A9
:100E2000738390EF980F983050F4509701C0220FC1
:100E3000AA95EAF790911401292B2093140192E0CE
:100E400090930A01BCCF10920A0180911501B7CF8F
:100E500084E080930A0180E069CF1F920F920FB661
:100E60000F9211242F933F934F935F936F937F9330
:100E70008F939F93AF93BF93EF93FF9398B182E0CB
:100E8000892788B9A4E8B0E08D919C91119790933F
:100E9000170180931601E1E8F0E080818B7F808369
:100EA00080818360808311961C921E920E946E0640
:100EB000FF91EF91BF91AF919F918F917F916F9132
:100EC0005F914F913F912F910F900FBE0F901F9008
:100ED0001895CF93DF931F92CDB7DEB769830E9439
:100EE000880716BC698167BD0F90DF91CF91089587
:100EF00084B5836084BD85B5886085BD84B58F77F2
:100F000084BD84B5806484BD85B5887F85BD089522
:100F100080349105B9F170F48130910551F1089751
:100F2000E1F485B58A7F85BD85B5826085BD81E0A8
:100F300090E00895811521E0920791F08115944089
:100F400061F485B5846085BD85B5816085BD85B555
:100F50008D7F85BD81E090E0089580E090E0089568
:100F600085B58C7F85BD85B5846085BD81E090E0C9
:100F7000089585B5897F85BD85B5816085BD81E092
:100F800090E0089585B58B7F85BD85B5836085BD6F
:100F900081E090E008950895F894E1E6F0E080E8BB
:100FA000808383E080837894089507C0EFECF7E0B6
:100FB0003197F1F700C0000001970097B9F7089545
:100FC00097FB072E16F4009407D077FD09D00E94F6
:100FD000FF0707FC05D03EF4909581959F4F08953B
:100FE000709561957F4F08950E941308A59F900DFD
:100FF000B49F900DA49F800D911D11240895AA1BEC
:10100000BB1B51E107C0AA1FBB1FA617B70710F0F3
:10101000A61BB70B881F991F5A95A9F78095909525
:10102000BC01CD010895A29FB001B39FC001A39F51
:10103000700D811D1124911DB29F700D811D112411
:10104000911D08958F929F92AF92BF92CF92DF929F
:10105000EF92FF92CF93DF93EC01688179818A81CF
:101060009B81611571058105910521F464E279ED9B
:101070008BE597E02DE133EF41E050E00E947E08E0
:1010800049015A019B01AC01A7EAB1E40E94F407AF
:101090006B017C01ACEEB4EFA50194010E94A008A5
:1010A000DC01CB018C0D9D1DAE1DBF1DB7FF03C024
:1010B0000197A109B04888839983AA83BB839F774E
:1010C000DF91CF91FF90EF90DF90CF90BF90AF90E6
:1010D0009F908F9008950E942208089580E091E0EB
:1010E0000E9422080895A0E0B0E080930001909350
:1010F0000101A0930201B09303010895052E97FB0F
:101100001EF400940E94950857FD07D00E94A50880
:1011100007FC03D04EF40C949508509540953095FB
:1011200021953F4F4F4F5F4F089590958095709553
:1011300061957F4F8F4F9F4F0895B7FF0C94F40731
:101140000E94F407821B930B0895A1E21A2EAA1B9A
:10115000BB1BFD010DC0AA1FBB1FEE1FFF1FA21767
:10116000B307E407F50720F0A21BB30BE40BF50B64
:10117000661F771F881F991F1A9469F760957095ED
:10118000809590959B01AC01BD01CF010895F89425
:02119000FFCF8F
:081192000100000001610101F0
:00000001FF
